:100000000C9434000C9451000C9451000C94510049
:100010000C9451000C9451000C9451000C9451001C
:100020000C9451000C9451000C9451000C9451000C
:100030000C9451000C9451000C9451000C945100FC
:100040000C9451000C9451000C9451000C945100EC
:100050000C9451000C9451000C9451000C945100DC
:100060000C9451000C94510011241FBECFEFD8E026
:10007000DEBFCDBF11E0A0E0B1E0E6EDFAE002C0E6
:1000800005900D92A832B107D9F725E0A8E2B1E0BA
:1000900001C01D92A832B207E1F70E94D5000C946E
:1000A00069050C9400009B01AC011092B90060E05E
:1000B00074E284EF90E00E945D02DA01C90140978A
:1000C000A109B109B695A795979587958093B80032
:1000D00084E08093BC00089594EA9093BC009091D2
:1000E000BC009923E4F79091B900987F983029F0EB
:1000F0009091B900987F9031C1F48093BB0084E85F
:100100008093BC008091BC008823E4F78091B90003
:10011000887F883121F0803421F491E003C091E0A0
:1001200001C090E0892F8170089580E0089584E9EE
:100130008093BC008091BC0084FDFCCF0895809327
:10014000BB0084E88093BC008091BC008823E4F766
:100150009091B900987F81E0983209F080E008958D
:1001600080E480937C0086E880937A000895ECE731
:10017000F0E09081907F8F70892B8083EAE7F0E038
:1001800080818064808380917A0086FDFCCF80919D
:1001900078009091790008950E94B0008AB18F7E16
:1001A0008AB98BB180618BB90895CF93DF93CDB7B6
:1001B000DEB7A0970FB6F894DEBF0FBECDBF0E948A
:1001C000B00080E895E20E9422020E948B010E940A
:1001D000CC000E948B0187B18C7F87B984B1866087
:1001E00084B9E12CF12C10C041E06E2D802F0E94CB
:1001F000F3010F5F1F4F02C000E010E0003811054F
:100200009CF32FEFE21AF20A80E4E816F104A4F35B
:100210000E945E0180E00E94B700182F092F81E044
:100220000E94B700F82EE92E4C9908C080E091E0BA
:100230000E94500285B1816085B903C085B18E7F6F
:1002400085B9EF92FF920F931F9381E191E09F9305
:100250008F938E010F5F1F4F1F930F930E947F029A
:10026000C8010E9450029FEF21EE84E0915020408F
:100270008040E1F700C000000FB6F894DEBF0FBE6B
:10028000CDBFC8CFCF93C82F88E70E946C0080E015
:100290000E949F008C2F0E949F000E949700CF9188
:1002A000089580E090E005C0FC01E85DFE4F1082FB
:1002B0000196811524E09207B8F30895CF93DF9358
:1002C000D0E024C080EB8D0F0E94420180E00E94AC
:1002D000420180E10E94420188E70E946C0080E4B4
:1002E0000E949F00C0E00DC0EC2FF0E080E8D89F96
:1002F000E00DF11D1124E85DFE4F80810E949F00FA
:10030000CF5FCC238CF70E949700DF5FD830D0F20C
:10031000DF91CF91089560EA76E881E090E00E9455
:1003200053002FEF81EE94E0215080409040E1F7A0
:1003300000C000008EEA0E94420180E20E94420159
:1003400080E00E94420180EB0E94420188EC0E9402
:10035000420180E00E94420180E10E94420180E46B
:100360000E94420181E80E9442018FE70E944201FF
:1003700081EA0E94420186EA0E94420188EA0E94C4
:1003800042018FE30E94420184EA0E94420183ED10
:100390000E94420180E00E94420185ED0E944201DC
:1003A00080E80E94420189ED0E94420181EF0E9493
:1003B00042018AED0E94420182E10E9442018BEDDE
:1003C0000E94420180E40E9442018DE80E944201A5
:1003D00084E10E9442018FEA0E9442010E94510181
:1003E0000E945E010895882364F1603450F590E026
:1003F000262F26952695269530E8239F800D911D62
:100400001124442379F0677021E030E002C0220F0C
:10041000331F6A95E2F7FC01E85DFE4F8081282BCF
:1004200020830895677021E030E002C0220F331F5F
:100430006A95E2F7FC01E85DFE4F20958081282354
:1004400020830895A0E0B0E0880F991FAA1FBB1F6A
:10045000880F991FAA1FBB1F9C01AD01220F331FDC
:10046000441F551F220F331F441F551F60E074E2C5
:1004700084EF90E00E945D02215031093093C50065
:100480002093C40088E18093C10086E08093C2007D
:1004900008959091C00095FFFCCF8093C600089509
:1004A000CF93DF93EC0103C021960E94490288811B
:1004B0008111FACFDF91CF910895A1E21A2EAA1BE4
:1004C000BB1BFD010DC0AA1FBB1FEE1FFF1FA21704
:1004D000B307E407F50720F0A21BB30BE40BF50B01
:1004E000661F771F881F991F1A9469F7609570958A
:1004F000809590959B01AC01BD01CF010895AEE0C0
:10050000B0E0E5E8F2E00C9440050D891E8986E034
:100510008C831A8309838FEF9FE79E838D83AE01BF
:10052000475E5F4F6F89788DCE0101960E94A102D0
:10053000EF81F885E00FF11F10822E96E4E00C9415
:100540005C05ABE0B0E0E7EAF2E00C9432056C0148
:100550007B018A01FC0117821682838181FFCCC155
:10056000CE0101963C01F6019381F70193FD85913F
:1005700093FF81917F01882309F4BAC1853239F450
:1005800093FD859193FF81917F01853229F4B60116
:1005900090E00E949804E7CF912C212C312CFFE1B0
:1005A000F315D8F08B3279F038F4803279F0833259
:1005B000A1F4232D20611DC08D3261F0803369F4D8
:1005C000232D216016C0832D8260382EE32DE46038
:1005D0003E2E2AC0F32DF8601DC037FC2DC020ED43
:1005E000280F2A3040F08E32B9F436FC81C1232D19
:1005F0002064322E19C036FE06C08AE0989E200D77
:100600001124922E11C0EAE02E9E200D1124222EDC
:10061000F32DF0623F2E08C08C3621F4832D8068C4
:10062000382E02C0883641F4F70193FD859193FF7F
:1006300081917F018111B3CF982F9F7D9554933085
:1006400028F40C5F1F4F9FE399830DC0833631F070
:10065000833771F0833509F059C021C0F8018081DA
:1006600089830E5F1F4F88248394912C530113C0FC
:100670002801F2E04F0E511CF801A080B18036FE37
:1006800003C0692D70E002C06FEF7FEFC5010E94CB
:100690008D044C018201F32DFF773F2E16C02801F7
:1006A00022E0420E511CF801A080B18036FE03C04A
:1006B000692D70E002C06FEF7FEFC5010E948204D8
:1006C0004C01F32DF0683F2E820133FC1BC0822DBC
:1006D00090E088169906B0F4B60180E290E00E949E
:1006E00098042A94F4CFF50137FC859137FE819167
:1006F0005F01B60190E00E94980421102A9421E045
:10070000821A91088114910471F7E8C0843611F0BF
:10071000893641F5F80137FE07C060817181828119
:1007200093810C5F1F4F08C060817181072E000C00
:10073000880B990B0E5F1F4FF32DFF763F2E97FF0F
:1007400009C090958095709561957F4F8F4F9F4F11
:10075000F0683F2E2AE030E0A3010E94D404882EE6
:10076000861845C0853731F4232D2F7EB22E2AE01E
:1007700030E025C0932D997FB92E8F36C1F018F443
:10078000883579F0B5C0803719F0883721F0B0C0CE
:10079000E92FE061BE2EB4FE0DC0FB2DF460BF2E2C
:1007A00009C034FE0AC0292F2660B22E06C028E0F8
:1007B00030E005C020E130E002C020E132E0F80185
:1007C000B7FE07C060817181828193810C5F1F4FEA
:1007D00006C06081718180E090E00E5F1F4FA30131
:1007E0000E94D404882E8618FB2DFF773F2E36FEFC
:1007F0000DC0232D2E7FA22E891458F434FE0BC079
:1008000032FC09C0832D8E7EA82E05C0B82CA32CE7
:1008100003C0B82C01C0B92CA4FE0FC0FE01E80D26
:10082000F11D8081803321F49A2D997EA92E09C073
:10083000A2FE06C0B394B39404C08A2D867809F052
:10084000B394A3FC11C0A0FE06C0B21488F4280C17
:10085000922C9B180EC0B21460F4B60180E290E0B6
:100860000E949804B394F7CFB21418F42B1802C066
:10087000982C212CA4FE10C0B60180E390E00E94C9
:100880009804A2FE17C0A1FC03C088E790E002C054
:1008900088E590E0B6010CC08A2D867859F0A1FE5B
:1008A00002C08BE201C080E2A7FC8DE2B60190E0BD
:1008B0000E949804891438F4B60180E390E00E9405
:1008C00098049A94F7CF8A94F301E80DF11D808182
:1008D000B60190E00E9498048110F5CF222009F41F
:1008E00042CEB60180E290E00E9498042A94F6CFAE
:1008F000F6018681978102C08FEF9FEF2B96E2E190
:100900000C944E05FC010590615070400110D8F721
:10091000809590958E0F9F1F0895FC016150704047
:1009200001900110D8F7809590958E0F9F1F089524
:100930000F931F93CF93DF93FB01238121FD03C00E
:100940008FEF9FEF2CC022FF16C046815781248174
:1009500035814217530744F4A081B1819D012F5F77
:100960003F4F318320838C93268137812F5F3F4F08
:100970003783268314C08B01EC01FB010084F185D1
:10098000E02D0995892BE1F6D80116968D919C9161
:100990001797019617969C938E931697CE01DF9129
:1009A000CF911F910F910895FA01AA27283051F194
:1009B000203181F1E8946F936E7F6E5F7F4F8F4F90
:1009C0009F4FAF4FB1E03ED0B4E03CD0670F781FEF
:1009D000891F9A1FA11D680F791F8A1F911DA11DD4
:1009E0006A0F711D811D911DA11D20D009F468940D
:1009F0003F912AE0269F11243019305D3193DEF6B5
:100A0000CF010895462F4770405D4193B3E00FD06A
:100A1000C9F7F6CF462F4F70405D4A3318F0495D55
:100A200031FD4052419302D0A9F7EACFB4E0A69538
:100A30009795879577956795BA95C9F7009761055A
:100A4000710508959B01AC010A2E069457954795B0
:100A500037952795BA95C9F7620F731F841F951FA5
:100A6000A01D08952F923F924F925F926F927F92B6
:100A70008F929F92AF92BF92CF92DF92EF92FF92AE
:100A80000F931F93CF93DF93CDB7DEB7CA1BDB0B5A
:100A90000FB6F894DEBF0FBECDBF09942A883988FF
:100AA00048885F846E847D848C849B84AA84B98406
:100AB000C884DF80EE80FD800C811B81AA81B98112
:100AC000CE0FD11D0FB6F894DEBF0FBECDBFED0126
:060AD0000895F894FFCF29
:100AD600627574746F6E2070726573736564210A33
:100AE60000582069733A202534752C2059206973E3
:080AF6003A202534750A0000C6
:00000001FF
