S00B00007961792E73726563C6
S11300000C9486010C94A3010C94A3010C94A301F9
S11300100C94A3010C94A3010C94A3010C94A301CC
S11300200C94A3010C94A3010C94A3010C94FC0163
S11300300C94A3010C94A3010C94A3010C94A301AC
S11300400C94A3010C94A3010C94A3010C94A3019C
S11300500C94A3010C94A3010C94A3010C94A3018C
S11300600C94A3010C94A3010C94A3010C94A3017C
S11300700C94A3010C94A3010C94A3010C94A3016C
S11300800C94A3010C94A3010C94A3010C94A3015C
S11300900C94A3010C94A3010C94A3010C94A3014C
S11300A00C94A3010C94A3010C94A3010C94A3013C
S11300B00C94A301000000000000000000000000F8
S11300C00000000000000000000096C100000000D5
S11300D00000818118818100000700070000147F5F
S11300E0147F1400242A7F2A120023130864620058
S11300F0364955225000000503000000001C22412F
S113010000000041221C000014083E0814000808E6
S11301103E080800005030000000080808080800E5
S11301200060600000002010080402003E514945B0
S11301303E0000427F400000426151494600214197
S1130140454B31001814127F1000274545453900EE
S11301503C4A4949300001710905030036494949BF
S11301603600064949291E000036360000000056B4
S11301703600000008142241000014141414140062
S11301800041221408000201510906003249794154
S11301903E007E1111117E007F49494936003E41DF
S11301A0414122007F4141221C007F4949494100CD
S11301B07F09090901003E4149497A007F0808087E
S11301C07F0000417F4100002040413F01007F0843
S11301D0142241007F40404040007F020C027F0017
S11301E07F0408107F003E4141413E007F09090918
S11301F006003E4151215E007F0919294600464907
S11302004949310001017F0101003F4040403F0066
S11302101F2040201F003F4038403F006314081453
S11302206300070870080700615149454300007FD7
S1130230414100000204081020000041417F0000F9
S11302400402010204004040404040000001020456
S113025000002054545478007F4844443800384403
S113026044442000384444487F003854545418000F
S1130270087E090102000C5252523E007F08040419
S1130280780000447D4000002040443D00007F1081
S11302902844000000417F4000007C0418047800DA
S11302A07C08040478003844444438007C14141452
S11302B00800081414147C007C0804040800485442
S11302C054542000043F444020003C4040207C0023
S11302D01C2040201C003C4030403C004428102896
S11302E044000C5050503C004464544C44000008FA
S11302F03641000000007F00000000413608000085
S113030010080810080000000000000011241FBE9F
S1130310CFEFD8E0DEBFCDBF11E0A0E0B1E0E6E36F
S1130320F9E002C005900D92A833B107D9F721E096
S1130330A8E3B1E001C01D92AC33B207E1F70E941B
S1130340E6030C9499040C94000000E00093B900B7
S113035008E40093B80004E00093BC00089504EAA4
S11303600093BC0027D00091B900087F083019F031
S1130370003109F029C08093BB0004E80093BC005D
S113038019D00091B900087F083109F10034F9F05F
S11303901BC004E90093BC0012D008958093BB00F5
S11303A004E80093BC0006D00091B900087F08322D
S11303B071F00AC00091BC0007FFFCCF08950091C2
S11303C0BC0004FDFCCF0895882780E008958827A9
S11303D081E00895009181000D600093810007EA97
S11303E011E6009388001093890000916F00026069
S11303F000936F007894089501E00093000118952C
S113040080E480937C0087E880937A000895ECE789
S1130410F0E09081907F8F70892B8083EAE7F0E091
S113042080818064808380917A0086FDFCCF8091F6
S11304307800909179000895CF92DF92EF92FF9225
S1130440CF93DF93D82FC0E0C12CD12C76010EC0FE
S11304508D2F0E940702C80ED91EE11CF11C8FE3E8
S11304609FE10197F1F700C00000CF5FC43080F333
S1130470D701C601B695A79597958795B695A79583
S113048097958795DF91CF91FF90EF90DF90CF9074
S113049008950E9400028AB18F7E8AB98BB180616F
S11304A08BB90895CF93C82F88E70E94AF0180E0ED
S11304B00E94CE018C2F0E94CE010E94C901CF91CF
S11304C008950E94A5018EEA0E94520280E20E94D1
S11304D0520280E00E94520280EB0E94520288EC99
S11304E00E94520280E00E94520280E10E94520265
S11304F080E40E94520281E80E9452028FE70E9427
S1130500520281EA0E94520286EA0E94520288EA5A
S11305100E9452028FE30E94520284EA0E94520215
S113052083ED0E94520280E00E94520285ED0E94F7
S1130530520280E80E94520289ED0E94520281EF29
S11305400E9452028AED0E94520282E10E945202EB
S11305508BED0E94520280E40E9452028DE80E94B8
S1130560520284E10E9452028FEA0E9452020895CC
S1130570CF93DF93D0E02BC088E70E94AF0180E0E7
S11305800E94CE0181E20E94CE0180E00E94CE0151
S11305908FE70E94CE0182E20E94CE018D2F0E943D
S11305A0CE018D2F0E94CE010E94C90188E70E94CE
S11305B0AF0180E40E94CE01C0E004C080E00E944C
S11305C0CE01CF5FCC23D4F70E94C901DF5FD830BE
S11305D098F2DF91CF9108950F931F93CF93DF93F8
S11305E08823C4F16034B0F5142FD62FC82F88E7C0
S11305F00E94AF0180E00E94CE0181E20E9452027B
S11306008C2F0E9452028C2F0E94520282E20E947E
S113061052020D2F069506950695802F0E945202D0
S1130620802F0E9452020E94C90188E70E94AF01F4
S113063080E40E94CE018D2F877001C0110F8A952E
S1130640EAF7812F0E94CE010E94C901C0933A01AA
S1130650D0933B01DF91CF911F910F91089540E01A
S113066060913B0180913A010E94EC0208950F933E
S11306701F93CF93DF93C0913901C60FCA5FD42F64
S1130680D695D695D695C13848F0909138019F5F9C
S113069090933801C6E0C60F10923901D83008F0A3
S11306A046C0062F182F88E70E94AF0180E00E9401
S11306B0CE0181E20E94520280913901800F0E9492
S11306C052028C2F0E94520282E20E9452028091B6
S11306D038018D0F0E945202809138018D0F0E94C3
S11306E052020E94C90188E70E94AF0180E40E947F
S11306F0CE01C0E013C0212F30E020523109F901AE
S1130700EE0FFF1FE20FF31FEE0FFF1FEC0FF11DA3
S1130710E453FF4F84910E94CE01CF5FC53058F35C
S11307200E94C901809139018A5F80933901DF9168
S1130730CF911F910F910895EF92FF921F93CF9342
S1130740DF936623B4F04034A0F4142FD62F7C0139
S11307501092390110923801C0E005C0CF5F412FDB
S11307606D2F0E943703F701EC0FF11D8081811179
S1130770F5CFDF91CF911F91FF90EF900895A0E006
S1130780B0E0880F991FAA1FBB1F880F991FAA1FCB
S1130790BB1F9C01AD01220F331F441F551F220FA5
S11307A0331F441F551F60E074E284EF90E00E9401
S11307B07704215031093093C5002093C40088E1A7
S11307C08093C10086E08093C2000895CF93DF93A5
S11307D0CDB7DEB7C659D1090FB6F894DEBF0FBE48
S11307E0CDBF0E94EA0180E895E20E94BF030E9407
S11307F000020E9449020E9461020E94B80287B16D
S11308008C7F87B984B1866084B987E3E1E0F1E045
S1130810DE01119601900D928A95E1F74EE16EE1A9
S1130820CE0101960E949C03809100018823E1F38C
S11308301092000180E00E941C027C0181E00E9471
S11308401C025C010E942F03C701A0E0B0E0880FE6
S1130850991FAA1FBB1F880F991FAA1FBB1F880FB0
S1130860991FAA1FBB1F880F991FAA1FBB1FBC017A
S1130870CD01660F771F881F991F660F771F881F8A
S1130880991F6894CC24C2F8DC2CE12CF12CA7012C
S113089096010E947704122FC501A0E0B0E0880FF2
S11308A0991FAA1FBB1F880F991FAA1FBB1F880F60
S11308B0991FAA1FBB1F880F991FAA1FBB1F880F50
S11308C0991FAA1FBB1F880F991FAA1FBB1FBC011A
S11308D0CD01660F771F881F991FA70196010E94FB
S11308E07704822F41E0612F0E94EC029DCFA1E2A8
S11308F01A2EAA1BBB1BFD010DC0AA1FBB1FEE1F96
S1130900FF1FA217B307E407F50720F0A21BB30BE0
S1130910E40BF50B661F771F881F991F1A9469F75C
S113092060957095809590959B01AC01BD01CF01B8
S10909300895F894FFCFC6
S11309360164616D6E2067672066206673612066B8
S1130946736120676767612067736120666120664B
S113095620612061206661206661206661662061EF
S10B09666620617366736100F1
S9030000FC
